{
  "_format": "hh-sol-artifact-1",
  "contractName": "BuyMeACoffee",
  "sourceName": "contracts/BuyMeACoffee.sol",
  "abi": [
    {
      "inputs": [],
      "stateMutability": "nonpayable",
      "type": "constructor"
    },
    {
      "anonymous": false,
      "inputs": [
        {
          "indexed": true,
          "internalType": "address",
          "name": "from",
          "type": "address"
        },
        {
          "indexed": false,
          "internalType": "uint256",
          "name": "timestamp",
          "type": "uint256"
        },
        {
          "indexed": false,
          "internalType": "string",
          "name": "name",
          "type": "string"
        },
        {
          "indexed": false,
          "internalType": "string",
          "name": "message",
          "type": "string"
        }
      ],
      "name": "NewMemo",
      "type": "event"
    },
    {
      "inputs": [
        {
          "internalType": "string",
          "name": "_name",
          "type": "string"
        },
        {
          "internalType": "string",
          "name": "_message",
          "type": "string"
        }
      ],
      "name": "buyCoffee",
      "outputs": [],
      "stateMutability": "payable",
      "type": "function"
    },
    {
      "inputs": [],
      "name": "getMemos",
      "outputs": [
        {
          "components": [
            {
              "internalType": "address",
              "name": "from",
              "type": "address"
            },
            {
              "internalType": "uint256",
              "name": "timestamp",
              "type": "uint256"
            },
            {
              "internalType": "string",
              "name": "name",
              "type": "string"
            },
            {
              "internalType": "string",
              "name": "message",
              "type": "string"
            }
          ],
          "internalType": "struct BuyMeACoffee.Memo[]",
          "name": "",
          "type": "tuple[]"
        }
      ],
      "stateMutability": "view",
      "type": "function"
    },
    {
      "inputs": [],
      "name": "getOwner",
      "outputs": [
        {
          "internalType": "address",
          "name": "",
          "type": "address"
        }
      ],
      "stateMutability": "view",
      "type": "function"
    },
    {
      "inputs": [],
      "name": "getWithdrawalAddress",
      "outputs": [
        {
          "internalType": "address",
          "name": "",
          "type": "address"
        }
      ],
      "stateMutability": "view",
      "type": "function"
    },
    {
      "inputs": [
        {
          "internalType": "address",
          "name": "_withdrawalAddress",
          "type": "address"
        }
      ],
      "name": "setWithdrawalAddress",
      "outputs": [],
      "stateMutability": "nonpayable",
      "type": "function"
    },
    {
      "inputs": [],
      "name": "withdrawTips",
      "outputs": [],
      "stateMutability": "nonpayable",
      "type": "function"
    }
  ],
  "bytecode": "0x608060405234801561001057600080fd5b50336000806101000a81548173ffffffffffffffffffffffffffffffffffffffff021916908373ffffffffffffffffffffffffffffffffffffffff16021790555033600160006101000a81548173ffffffffffffffffffffffffffffffffffffffff021916908373ffffffffffffffffffffffffffffffffffffffff160217905550611020806100a16000396000f3fe6080604052600436106100555760003560e01c8063204206e11461005a57806321b8092e146100765780633aaa74b21461009f578063865c5172146100b6578063893d20e8146100e1578063ec8f3fa51461010c575b600080fd5b610074600480360381019061006f91906107e2565b610137565b005b34801561008257600080fd5b5061009d600480360381019061009891906108b8565b6102b1565b005b3480156100ab57600080fd5b506100b46103f2565b005b3480156100c257600080fd5b506100cb610452565b6040516100d89190610ab8565b60405180910390f35b3480156100ed57600080fd5b506100f6610635565b6040516101039190610ae9565b60405180910390f35b34801561011857600080fd5b5061012161065e565b60405161012e9190610ae9565b60405180910390f35b6000341161017a576040517f08c379a000000000000000000000000000000000000000000000000000000000815260040161017190610b61565b60405180910390fd5b600260405180608001604052803373ffffffffffffffffffffffffffffffffffffffff16815260200142815260200184815260200183815250908060018154018082558091505060019003906000526020600020906004020160009091909190915060008201518160000160006101000a81548173ffffffffffffffffffffffffffffffffffffffff021916908373ffffffffffffffffffffffffffffffffffffffff1602179055506020820151816001015560408201518160020190816102429190610d8d565b5060608201518160030190816102589190610d8d565b5050503373ffffffffffffffffffffffffffffffffffffffff167fc56140e05f516509ae28110e0f72e17558a7561630dad2647c3ae87d986e365c4284846040516102a593929190610ea7565b60405180910390a25050565b60008054906101000a900473ffffffffffffffffffffffffffffffffffffffff1673ffffffffffffffffffffffffffffffffffffffff163373ffffffffffffffffffffffffffffffffffffffff161461033f576040517f08c379a000000000000000000000000000000000000000000000000000000000815260040161033690610f5e565b60405180910390fd5b600073ffffffffffffffffffffffffffffffffffffffff168173ffffffffffffffffffffffffffffffffffffffff16036103ae576040517f08c379a00000000000000000000000000000000000000000000000000000000081526004016103a590610fca565b60405180910390fd5b80600160006101000a81548173ffffffffffffffffffffffffffffffffffffffff021916908373ffffffffffffffffffffffffffffffffffffffff16021790555050565b60008054906101000a900473ffffffffffffffffffffffffffffffffffffffff1673ffffffffffffffffffffffffffffffffffffffff166108fc479081150290604051600060405180830381858888f1935050505061045057600080fd5b565b60606002805480602002602001604051908101604052809291908181526020016000905b8282101561062c57838290600052602060002090600402016040518060800160405290816000820160009054906101000a900473ffffffffffffffffffffffffffffffffffffffff1673ffffffffffffffffffffffffffffffffffffffff1673ffffffffffffffffffffffffffffffffffffffff1681526020016001820154815260200160028201805461050990610bb0565b80601f016020809104026020016040519081016040528092919081815260200182805461053590610bb0565b80156105825780601f1061055757610100808354040283529160200191610582565b820191906000526020600020905b81548152906001019060200180831161056557829003601f168201915b5050505050815260200160038201805461059b90610bb0565b80601f01602080910402602001604051908101604052809291908181526020018280546105c790610bb0565b80156106145780601f106105e957610100808354040283529160200191610614565b820191906000526020600020905b8154815290600101906020018083116105f757829003601f168201915b50505050508152505081526020019060010190610476565b50505050905090565b60008060009054906101000a900473ffffffffffffffffffffffffffffffffffffffff16905090565b6000600160009054906101000a900473ffffffffffffffffffffffffffffffffffffffff16905090565b6000604051905090565b600080fd5b600080fd5b600080fd5b600080fd5b6000601f19601f8301169050919050565b7f4e487b7100000000000000000000000000000000000000000000000000000000600052604160045260246000fd5b6106ef826106a6565b810181811067ffffffffffffffff8211171561070e5761070d6106b7565b5b80604052505050565b6000610721610688565b905061072d82826106e6565b919050565b600067ffffffffffffffff82111561074d5761074c6106b7565b5b610756826106a6565b9050602081019050919050565b82818337600083830152505050565b600061078561078084610732565b610717565b9050828152602081018484840111156107a1576107a06106a1565b5b6107ac848285610763565b509392505050565b600082601f8301126107c9576107c861069c565b5b81356107d9848260208601610772565b91505092915050565b600080604083850312156107f9576107f8610692565b5b600083013567ffffffffffffffff81111561081757610816610697565b5b610823858286016107b4565b925050602083013567ffffffffffffffff81111561084457610843610697565b5b610850858286016107b4565b9150509250929050565b600073ffffffffffffffffffffffffffffffffffffffff82169050919050565b60006108858261085a565b9050919050565b6108958161087a565b81146108a057600080fd5b50565b6000813590506108b28161088c565b92915050565b6000602082840312156108ce576108cd610692565b5b60006108dc848285016108a3565b91505092915050565b600081519050919050565b600082825260208201905092915050565b6000819050602082019050919050565b61091a8161087a565b82525050565b6000819050919050565b61093381610920565b82525050565b600081519050919050565b600082825260208201905092915050565b60005b83811015610973578082015181840152602081019050610958565b60008484015250505050565b600061098a82610939565b6109948185610944565b93506109a4818560208601610955565b6109ad816106a6565b840191505092915050565b60006080830160008301516109d06000860182610911565b5060208301516109e3602086018261092a565b50604083015184820360408601526109fb828261097f565b91505060608301518482036060860152610a15828261097f565b9150508091505092915050565b6000610a2e83836109b8565b905092915050565b6000602082019050919050565b6000610a4e826108e5565b610a5881856108f0565b935083602082028501610a6a85610901565b8060005b85811015610aa65784840389528151610a878582610a22565b9450610a9283610a36565b925060208a01995050600181019050610a6e565b50829750879550505050505092915050565b60006020820190508181036000830152610ad28184610a43565b905092915050565b610ae38161087a565b82525050565b6000602082019050610afe6000830184610ada565b92915050565b600082825260208201905092915050565b7f63616e27742062757920636f6666656520666f72206672656521000000000000600082015250565b6000610b4b601a83610b04565b9150610b5682610b15565b602082019050919050565b60006020820190508181036000830152610b7a81610b3e565b9050919050565b7f4e487b7100000000000000000000000000000000000000000000000000000000600052602260045260246000fd5b60006002820490506001821680610bc857607f821691505b602082108103610bdb57610bda610b81565b5b50919050565b60008190508160005260206000209050919050565b60006020601f8301049050919050565b600082821b905092915050565b600060088302610c437fffffffffffffffffffffffffffffffffffffffffffffffffffffffffffffffff82610c06565b610c4d8683610c06565b95508019841693508086168417925050509392505050565b6000819050919050565b6000610c8a610c85610c8084610920565b610c65565b610920565b9050919050565b6000819050919050565b610ca483610c6f565b610cb8610cb082610c91565b848454610c13565b825550505050565b600090565b610ccd610cc0565b610cd8818484610c9b565b505050565b5b81811015610cfc57610cf1600082610cc5565b600181019050610cde565b5050565b601f821115610d4157610d1281610be1565b610d1b84610bf6565b81016020851015610d2a578190505b610d3e610d3685610bf6565b830182610cdd565b50505b505050565b600082821c905092915050565b6000610d6460001984600802610d46565b1980831691505092915050565b6000610d7d8383610d53565b9150826002028217905092915050565b610d9682610939565b67ffffffffffffffff811115610daf57610dae6106b7565b5b610db98254610bb0565b610dc4828285610d00565b600060209050601f831160018114610df75760008415610de5578287015190505b610def8582610d71565b865550610e57565b601f198416610e0586610be1565b60005b82811015610e2d57848901518255600182019150602085019450602081019050610e08565b86831015610e4a5784890151610e46601f891682610d53565b8355505b6001600288020188555050505b505050505050565b610e6881610920565b82525050565b6000610e7982610939565b610e838185610b04565b9350610e93818560208601610955565b610e9c816106a6565b840191505092915050565b6000606082019050610ebc6000830186610e5f565b8181036020830152610ece8185610e6e565b90508181036040830152610ee28184610e6e565b9050949350505050565b7f4f6e6c7920746865206f776e65722063616e2063616c6c20746869732066756e60008201527f6374696f6e000000000000000000000000000000000000000000000000000000602082015250565b6000610f48602583610b04565b9150610f5382610eec565b604082019050919050565b60006020820190508181036000830152610f7781610f3b565b9050919050565b7f496e76616c6964207769746864726177616c2061646472657373000000000000600082015250565b6000610fb4601a83610b04565b9150610fbf82610f7e565b602082019050919050565b60006020820190508181036000830152610fe381610fa7565b905091905056fea2646970667358221220c79a0b2d2505d8783792caf9c6efdee02b5a49020884f13f667cc0dcbd0220e164736f6c63430008110033",
  "linkReferences": {},
  "deployedLinkReferences": {}
}